:0300000002125396
:0C125300787FE4F6D8FD75815502129AF0
:100CCC0012000E121AF87D3C7F3C121CCC7FD07E99
:100CDC00071219C243BB7053B3EF53B4EFD2971240
:100CEC001CE4121BF17D017F041215D6E4FF1211D6
:100CFC002EE4FF12112E121092E5531206770D2CD2
:100D0C00010D34030D41070D6A0B0D960C0DAB0E46
:100D1C000DC9100DE2120E1B140E491600000D0227
:100D2C00121AE31211C4806D121AE3C290D291D23E
:100D3C0092C2958060121AE3C290D291D292C2955F
:100D4C007F087E071219C2C290C291C292C2957FCF
:100D5C00E87E031219C27F0612112E020E41121ADE
:100D6C00E3C290C291C292C2957FB87E0B1219C297
:100D7C00120E667F0312112EC290D291C292D2959E
:100D8C007F627E111219C2020E41121AE3C290D276
:100D9C0091D292C2957F087E071219C2020E41129F
:100DAC001AE3C290C291C292C2957F207E0312199F
:100DBC00C21212DF7FF47E011219C28078121AE37C
:100DCC007F0812112EC290D291D292C2957F087ECA
:100DDC00071219C2805F121AE3D290C291D292C24A
:100DEC00957F727E061219C2C290C291C292C295B0
:100DFC00121583D290C291D292C2957F267E021296
:100E0C0019C2C290C291C292C29512158380261249
:100E1C001AE3C290C291C292C2957FE87E03121966
:100E2C00C27F0712112ED290C291C292D2957F0826
:100E3C007E071219C2121AE30553020D02121AE3AD
:100E4C00C290D291D292C2957F087E071219C2121B
:0A0E5C001AE30553E4F553020D02FA
:0D000E00C293C294C290C291C292C29522C8
:10109200AF80EF12067711170010F91F10F92F1009
:1010A200F93F10F94F10F95F10F96F10F97F10F93D
:1010B2008F10F99F10F9AF10F9BF10F9CF10F9DFB7
:1010C2001108E710F9EF10FFF110FFF210FFF31013
:1010D200FFF410FFF510FFF610FFF710FFF810FFF6
:1010E200F910FFFA10FFFB10FFFC10FFFD10FFFECE
:1010F200110EFF00001108C290D291802AD290C234
:1011020091C292D29522D290C291801BC290C2917A
:10111200C292C29522C290C291C292C2957FB07E03
:0C112200041219C2055322D292C2952279
:101AE300E580B4FF0FC290D291C292D2957FF47E6B
:051AF300011219C222DE
:1019C200E4FDFCC3ED9FEC9E5015E4FBFA0BBB005B
:0F19D200010AEB64954A70F50DBD00010C80E42D
:0119E10022E3
:101B9900D3EF9400EE9400400800EF1F70F21E800E
:021BA900EF2229
:0C1C4A007F167E037DE3DDFEDEFCDFFA8A
:011C5600226B
:0A1CAD0000007F6C7E90DEFEDFFC7D
:011CB700220A
:101A4100D3EF9400EE940040147D907C01ED1D7065
:0D1A5100011CED4C70F7EF1F70E61E80E3E6
:011A5E002265
:101A5F00D3EF9400EE940040147D727C00ED1D7066
:0D1A6F00011CED4C70F7EF1F70E61E80E3C8
:011A7C002247
:101AF80075D90CE4F5E9F5F9F5F275DA42F5F375FF
:051B0800DB42D2DE22E9
:091CCC008FEA8FFA8DEB8DFB22EB
:101B4C00538E7F5389F0438901758A66758CFCC26C
:041B5C008DD28C2278
:03000B000219A037
:0219A000C0E0A5
:1019A200758A66758CFCE51F6464451E7007F51E1A
:0D19B200F51F6300FF051FE51F7002051EF5
:0319BF00D0E03243
:101BCF00538EBF53890F438910E4F58BF58DC28F68
:011BDF0022E3
:03001B00021CB80C
:0A1CB800758B00758D007500013278
:0D1C57006E756D2568753A256875200A00C8
:101B600075985053877F438E04759CDC438E0143E8
:031B70008E1022B2
:1019E2007C037DE81206047F647E00CFCDCFCECC8F
:0819F200CE120604EF2430FFC1
:0819FA008F993099FDC299227A
:1018FE00AB077E001219E2EB75F06484E5F075F02B
:10190E000A842430FF1219FAEB75F00A84E5F024EC
:0A191E0030FF1219FA7F0D0219FACA
:101461008E518F52E4FCFD7BA07A867901F8121629
:10147100B0AC00AD01AE02AF03E47B107A27F9F8FE
:101481001216B01219F6AE51AF527C277D1012061A
:10149100047E037FE81219EDAE51AF521219E2AE8C
:1014A10051AF527C007D641206047F0A1219EBAE23
:1014B10051AF527C007D0A120604ED2430FF12194F
:0614C100FA7F0D0219FA8A
:101A9B00D2997BFF7A1C79578E278F288C298D2A18
:091AAB001208BF3099FDC2992216
:101B0D00ED601112058AFF1219FA740129F9E43AF0
:051B1D00FA1D80EC221E
:101B220053877F759850438E04759CDC438E014326
:051B32008E10D2992283
:080003008F993099FDC299228A
:101B3700ED601112058AFF120003740129F9E43AD6
:051B4700FA1D80EC22F4
:1016210034431010013443101002344310100334BA
:101631004310100434431010053443101006344392
:1016410010100134431010023443101003344310BE
:10165100100434431010053443101006000F1E2DE2
:0B16610037414B5A6973A5A5A5A5A54C
:051CE400C2A0D2C422E1
:1018A600E4900003F0EF30E704D2A38002C2A3EF76
:1018B60025E0FFD2A130A20543070180035307FEAE
:0C18C600C2A1900003E004F0E0B408D9D7
:0118D20022F3
:101BAB00C2C41218A67FFF1218A6900001EFF0D244
:011BBB00C465
:011BBC002206
:071A020090165D93FD7F25A6
:021A0900AE0528
:101A0B00C2C41218A6900001EFF0AF061218A6D2AE
:061A1B00C4900001E0FF91
:011A210022A2
:06166C008B288A29892A5F
:10167200C2C41218A6900001EFF0E4A3F090000299
:10168200E0C3952B5020E4FF1218A6AB28AA29A983
:101692002A900002E0F582758300EF1205E29000C5
:0D16A20002E004F080D7D2C4900001E0FF08
:0116AF002218
:1014C70075F005A4243FF9741635F0FA7BFF752CE7
:0314D700057F2A64
:0614DA008B298A2A892BF0
:1014E000C2C41218A6900001EFF0E52CD39420405E
:1014F00003752C20E4900002F0900002E0C3952CCC
:10150000501DAB29052BE52BAA2A7002052A14F9D8
:1015100012058AFF1218A6900002E004F080DAD2C9
:06152000C4900001E0FF91
:0115260022A2
:0C1C7100C2A07D0F7F20121A09D2A02211
:101849008F54C2A0ED1214C77D017F21121A097F9E
:1018590022121A09E554121A027D207F31121A093F
:0F1869007D0F7F26121A097F20121A09D2A022A2
:1015D6008F228D23C2A0E52375F005A42421F9747A
:1015E6001635F0FA7BFF752C057F301214DAE523E9
:1015F6001214C77D017F21121A097F22121A097D52
:101606001F7F24121A09E522121A027D0F7F261265
:0B1616001A091D7F20121A09D2A02221
:10173200E4900004F07F07121BAB900005EFF0FD70
:10174200C2A07F27121A09900005E030E60E752B21
:10175200207F6112166C9000047401F07DFF7FE21D
:0A176200121A09D2A0900004E0FF63
:01176C00225A
:10176D00C2A0752C207FA01214DAD2A020B2FD7F6A
:10177D0007121BAB900000EFF0FD7F27121A0990A6
:10178D000000E0FC30E40A7DFF7FE1121A097F10B2
:0A179D0022EC30E5037F20227FFFDD
:0117A700221F
:1015270078227C007D007BFF7A1679677E007F0535
:101537001207697B007A007922752C057F30121417
:10154700DA7B007A007922752B057F1012166CE47E
:10155700900000F0900000E0FFC394055010742243
:101567002FF8E6B4A508900000E004F080E69000AC
:0B15770000E0640560037F01227F009C
:011582002246
:051CE9000000000000F6
:02112E008F220E
:1011300078237C007D007BFF7A1C79E97E007F05A7
:101140001207697523557524AAE52214B4080050C6
:101150004F90115F75F003A4C58325F0C58373021A
:10116000117702117C0211810211A0021186021175
:101170008B021190021198752549801775255080B2
:1011800012752551800D7525528008752584800BB8
:10119000752566752668800D75254675268180053E
:1011A000E4F525F5267B007A0079237D0412195198
:1011B0008F277B007A00792312176DBF20057F6689
:0311C00012000317
:0111C3002209
:061951008B288A29892A77
:10195700E4FFEDD394004016AB28052AE52AAA290F
:101967007002052914F912058A2FFF1D80E4630709
:01197700FF70
:01197800224C
:101BF100121527EF6007B297121C4A80F3D2972281
:101ACD00BAECC9AB25642CC2CCC9AB25642CC0B60D
:061ADD00C9AB25640A00FC
:101B8600041A3F4A3D7104144000000004103FE06F
:021B960000004D
:101B7300538E3F758950E4F58A758CDCC28DF58DE3
:031B8300F58B22BD
:03000B00020F9A47
:100F9A00C0E0C0F0C083C08263A201C083C082C027
:100FAA00D075D000C000C001C002C003C004C00593
:040FBA00C006C007A6
:100FBE00C28CC28EE50870320508D2A4D2A5AF8DC0
:100FCE00EFFEAD8B7C00E42DFDEC3EFCE412023610
:100FDE00AB1DAA1CA91BA81A12001E12026F8E406E
:100FEE008F41854018854119806EE5086401703285
:100FFE000508C2A4D2A5AF8DEFFEAD8B7C00E42D0B
:10100E00FDEC3EFCE4120236AB17AA16A915A81485
:10101E0012001E12026F8E408F4185400A85410BD1
:10102E008036E50864027030F508C2A4C2A5AF8D03
:10103E00EFFEAD8B7C00E42DFDEC3EFCE41202369F
:10104E00AB13AA12A911A81012001E12026F8E4025
:10105E008F4185400D85410E758B00758D00D28CAC
:02106E00D28E20
:10107000D007D006D005D004D003D002D001D000D4
:10108000D0D0D082D08363A201D082D083D0F0D0E0
:02109000E0324C
:1012DF00E4F522F5237F0AFE121A41C2A4C2A51219
:1012EF001B73121B22D2AFD2A9D28CD28EC3E5238D
:1012FF009403E52264809480505B7BFF7A1A79CD4A
:10130F00851827851928850A29850B2A850D2B8590
:10131F000E2C1208BF7F2C7E011219C2D3E519952E
:10132F000BE518950A401CC2977FFA7E001219C26E
:10133F00D2977FFA7E001219C2C290C291C292C296
:10134F009580AAD290C291D292C2950523E52370BF
:05135F009C05228098AE
:011364002266
:061CDE0020202020202040
:0E1C010000007F017EC27D9FDDFEDEFCDFFA6B
:011C0F0022B2
:061C2E00121C34121C34EC
:071C34000000007F18DFFE35
:011C3B002286
:1017A800E4FC755502209607AF550555EF70F61203
:1017B8001C2EE4FD3096010D755502309607AF5585
:1017C8000555EF70F6E5556401600BEE25E0FEED7A
:0817D80042060CBC08CCAF0670
:0117E00022E6
:1013650078277C007D007BFF7A1C79DE7E007F0676
:10137500120769C296121C01D296121C2E121C3439
:10138500D296209655755502209607AF550555EF0F
:1013950070F6755502309607AF550555EF70F61284
:1013A50017A8AB071217A88F2D1217A8AA0712178F
:1013B500A8A9071217A8D296EA292B252D6F701A0E
:1013C5008B27852D288A29892A8F2BAF03EFFEAD20
:0D13D500027C00E42DFFEC3EFE22E4FEFF52
:0113E20022E8
:0218D3008F2D57
:1018D500E4F52EC2B7121C7DE52D30E007D2B71214
:1018E5001CC28005D2B7121C7DE52DC313F52D054D
:0818F5002EE52EC3940840DB30
:0118FD0022C8
:101878008F2B8D2CC2B7121C89D2B7121CD5AF2B57
:101888001218D3E52BF4FF1218D3AF2C1218D3E596
:0E1898002CF4FF1218D3C2B7121C7DD2B72257
:061A22008F278D288B299F
:101A2800E4F52AE52AC39527500EAD29AF281218E8
:081A380078121C4A052A80EB1C
:011A40002283
:10158300E4F522F525F5267B45FD7F01121A227F1E
:10159300F47E011219C27B127DF27F02121A22E538
:1015A30022C39405502CE526C394035018E4F52573
:1015B3001213658E238F24EFF5257FF47E01121914
:1015C300C2052680E1AB257DF27F01121A22052296
:0215D30080CDC9
:0115D50022F3
:0B1C7D000000007F077E01DEFEDFFCA0
:011C88002239
:091CC200007F137E32DEFEDFFC20
:011CCB0022F6
:0B1C89000000007F617ECEDEFEDFFC6D
:011C9400222D
:081CD5007F317E65DEFEDFFCBD
:011CDD0022E4
:1013E300AB07AA067C277D10120604EF2430F545CF
:1013F3007C277D10AF03AE02120604AA04AB057C62
:10140300037DE8AF03AE02120604EF2430F5427CFD
:10141300037DE8AF03AE02120604AA04AB057C0009
:101423007D64AF03AE02120604EF2430F54E7C0058
:101433007D64AF03AE02120604AA04AB057C007DF3
:101443000AAF03AE02120604EF2430F54F7C007D91
:0E1453000AAF03AE02120604ED2430F550225B
:1017E100C2977F2C7E011217F5D297C2971217F577
:0417F100D297C29732
:1017F500E4FDFCC3ED9FEC9E5015E4FBFA0BBB002A
:0F180500010AEB64794A70F50DBD00010C80E417
:0118140022B1
:101BE00000000000000000000000000000000000F5
:011BF00022D2
:0E1C10007F307E02EF1FAC0670011E4C70F696
:011C1E0022A3
:0F1C1F00D2C5D2C6121BE0C2C5121BE0C2C6223C
:0C1C9500C2C5D2C6121BE0D2C5021BE083
:0E1C3C00A20092C5D2C6121BE0C2C6021BE077
:0D1C6400D2C6121BE0A2C5C2C6121BE022B0
:101AB400E4FEEF25E0FF92C5D2C6121BE0C2C612B7
:091AC4001BE00EBE08EC021C64DC
:101A7D00E4FFD2C5FEEF25E0FFD2C6121BE0A2C5E2
:0D1A8D00E4334207C2C6121BE00EBE08E89B
:011A9A002229
:101BBD00AD07121C1F7F46121AB4AF05121AB402DC
:021BCD001C9565
:10192800121C1F7F47121AB4E4FD121A7D74462D4B
:10193800F8A607BD0304D2008002C200121C3C0DA9
:09194800BD03E7121C95021C10FE
:051CEE007F01021BBD97
:100E6600E4F526F5277F64FE1217F5121CEED297DD
:100E7600C3E5279403E526648094804003020F9916
:100E86007F01121BBD7F10121BBD7FB47E0012179F
:100E9600F5121928754300854644E544FE7C00E4B6
:100EA6002547F544EC3EF543FCAD441202367B9AE9
:100EB6007A997999783F1201278F258E248D238C74
:100EC6002212026F1213E3E4FFFE7DA07C40AB25E5
:100ED600AA24A923A8221201C45015C2977F2C7EEA
:100EE600011217F5D2970527E5277084052680801D
:100EF600E4FFFE7D207C41AB25AA24A923A822126B
:100F060001C4602C402AE4FFFE7DE17C43AB25AAA8
:100F160024A923A8221201C45016C2977F2C7E0151
:100F26001217EED2970527E527703C0526020E76A6
:100F3600E4FFFE7DFA7C43AB25AA24A923A822124E
:100F460001C460264024E4FFFE7D617C44AB25AAF3
:100F560024A923A8221201C450101217E1D2970522
:100F660027E52770020526020E76E4FFFE7D967CB5
:100F760044AB25AA24A923A8221201C46015401354
:100F86001217E11217F1D2970527E52770020526F9
:030F9600020E76D2
:010F99002235
:0C1CA100D2B47F057E00121B99C2B42251
:10181500E4FCAF8DEFFEAD8BE42DFBEC3EFAE4F579
:101825008DF58BAE02AF03AD07AC061202367B29F0
:101835007A5C79EF783F12001EE4FBFA79C87842AA
:0318450012012766
:01184800227D
:1016F400E4F52FF52EF52DF52CF500121CA130B3D1
:10170400FDD28E20B3FDC28EE500B4010DE4F52FA9
:10171400F52E752DC8752C43800B1218158F2F8E3E
:0D1724002E8D2D8C2CAF2FAE2EAD2DAC2CAC
:011731002295
:1011C400E4F522F523F524F525F526F527F52BF589
:1011D4002A752948752842121B60D2A9D2ABD2AF16
:1011E400E522C394015067E4F52BF52A7529487567
:1011F4002842E5006014C2A91216F48F2B8E2A8DA2
:10120400298C280524E4F500D2A9D290C291D29267
:10121400C295E4FFFE7DF07C41AB2BAA2AA929A844
:10122400281201C45023C290C291C292C295C2979F
:101234007FF47E011219C2D2977FF47E011219C283
:0E1244007F407E1F1219C20522121092809266
:011252002279
:10001E00EC4D6011E8497017ED33EC3304600DE4DC
:10002E00FCFFFEFD22E933E8330470F80202DB1216
:10003E0002A658046009E4CC248150062850090217
:10004E0002E52840030202E2C0E0EB4A7044B980A8
:10005E0006D0E0FB0202D1EF4E701CBD8008EBFF14
:10006E00EAFEE9FD80EBE98DF0A4FEE5F002010762
:10007E00E9CDF9EAFEEBFFEF89F0A4FCE5F0CE89BD
:10008E00F0A42EFFE435F0CD89F0A42DFEE435F07A
:10009E008067EF4E7005BD80D780C3EF8BF0A4ACA8
:1000AE00F0EE8BF0A42CFCE435F0F8EF8AF0A42CE3
:1000BE00E5F038FCE433CB8DF0A42CFCE5F03BF8F6
:1000CE00EE8AF0A42CFCE5F038F8E433CF89F0A4E6
:1000DE002CFCE5F038CF3400CE89F0A42FFFE5F0EC
:1000EE003EFEE433C98DF0A42EFEE5F039CD8AF044
:1000FE00A42FFFE5F03EFEE43DFD33D0E0FB5007BC
:10010E000BBB000F0202E5EC2CFCEF33FFEE33FECF
:06011E00ED33FD0202BDFD
:100124000202E5EC5D046005E8590470030202DB99
:100134001202A6580460F6EC4860F2EC7004FDFE6E
:10014400FF22C860DB2481C85009C39860025006AE
:100154000202E29850CAF582E9294B4A7005AB8243
:100164000202D175F0007C1A7880C3EF9BEE9AED01
:1001740099400DC3EF9BFFEE9AFEED99FDE842F026
:10018400DC23ACF0D0E0FFD0E0FED0E0FDAB822079
:10019400E7101BEB60BAEC2CFCEF33FFEE33FEED03
:1001A40033FD0202BDE803F830E705C0F075F00046
:1001B400EF2FFFEE33FEED33FD40B830E7C280AAE7
:1001C40074F8CC6480CCC86480C8F582046043C3EE
:1001D400EB9FF5F0EA9E42F0E99D42F0E89C45F081
:1001E40060305018E5825FFFE582F42B5582FB50A6
:1001F400210ABA001D09B90019088016E5825BFBC3
:10020400E582F42F5582FF50090EBE00050DBD0096
:10021400010CC3EB9FF5F0EA9E42F0E99D42F0E841
:0D0224009C45F06007CC4820E701B3EC22B8
:1002310075F020800E75F010800575F0087D007E48
:10024100007F003392D530D503120659EC334010AC
:10025100EF33FFEE33FEED33FDEC33FCD5F0ED2251
:0E026100E5F0247EA2D513CC92E7CDCEFF228D
:10026F00EDD2E7CD33EC3392D524814006E4FFFE87
:10027F00FDFC22FCE4CFCECDCC24E0501174FF80E6
:10028F00EDC3CC13CCCD13CDCE13CECF13CF047083
:07029F00F030D5DE02065924
:10085D00E53B2427F8E6053B22782430070278276C
:10086D00E475F00112066702058A2000EB7F2ED297
:10087D00008018EF540F2490D43440D4FF30040B73
:10088D00EF24BFB41A0050032461FFE53C6002154C
:10089D003C053FE53F7002053E30070D7824E475B9
:1008AD00F001120667EF0205D00219797403D20721
:1008BD008003E4C207F53B8B248A258926E4F53CA9
:1008CD00F53EF53FE53C60077F2012089880F575F1
:1008DD003DFFC201C200C202C203C205C206C20868
:1008ED00120866FF700D3007057F001208A9AF3F93
:1008FD00AE3E22B4255FC2D5C204120866FF24D0D5
:10090D00B40A00501A75F00A783C30D50508B6FFC8
:10091D000106C6A426F620D5047002D20380D92480
:10092D00CFB41A00EF5004C2E5D204020B96D201E7
:10093D0080C6D20080C0D20280BCD2D580BAD2058A
:10094D0080B47F201208982002077401B53C004046
:10095D00F112085DFF1208980208D1D208D2068064
:10096D009512085DFB12085DFA12085DF94A4B708D
:10097D0006798D7A0C7BFF20022EE53C602A7E00E5
:10098D008E827583001205A360060EEE653D70F034
:10099D00C2D5EBC0E0EAC0E0E9C0E0EE120BF6D044
:1009AD00E0F9D0E0FAD0E0FB12058AFF60AAEBC0B7
:1009BD00E0EAC0E0E9C0E0120898D0E02401F9D0E7
:1009CD00E03400FAD0E0FBE53D0460DCD53DD98094
:1009DD0087D20280A2120BD960F7E53D7001041297
:1009ED0002F0A93D600DE53D600914F53D120C8046
:1009FD00EF60F3EA30E702F404C3995077EAF42587
:100A0D003D0430E701E404F53D800D120BD960C1C2
:100A1D00EA053D253D1202F0EA783AF630E701E4A9
:100A2D00253D04D53D0420050114120BF6E4C0E06C
:100A3D00120C80783AE6601320E70714F61208804E
:100A4D00802204F6D0E014C0E07F00120880E53D5E
:100A5D006007120877153D800B300503120877D01B
:100A6D00E00208D1D0E00480C5120BD960A0E53DAD
:100A7D00041202F0783AEAF6E53D20050260010421
:050A8D002404120BF629
:100A920074FF04C0E0120C80120880E53D200502BC
:100AA2006003120877D0E0B53DE87F4512088A78E6
:100AB2003AE67F2B30E7047F2DF404C0E012089859
:100AC200D0E075F00A84C0F0120881D0E0120881EB
:100AD2000208D1791080027908C206C2088008D2C1
:100AE200D5790A8004790AC2D5E53D047002F53D44
:100AF200E4FAFDFEFF12085DFC7B082001131208D8
:100B02005DFD7B1030000A12085DFE12085DFF7B5E
:100B120020EC3382D592D55013C3E43000069FFFF8
:100B2200E49EFEE42001039DFDE49CFCE4CBF8C2BC
:100B320001EC700CCFCECDCCE824F8F870F380171E
:100B4200C3EF33FFEE33FEED33FDEC33FCEB33FB4F
:100B5200994002FB0FD8E9EB300105F8D0E0C44818
:100B6200B201C0E00AEC4D4E4F78207B0070C2EA21
:100B7200B53D0040BCC0E0120BF8D0F0D0E020013F
:100B820004C4C0E0C4B201C0F0120881D0F0D5F0B4
:100B9200EB0208D1120677096E530AD558093F4C69
:100BA200093B420AD94F0AE1440AE1490954430A7E
:100BB200E7550A18460A764509E2470CAD50094343
:100BC2002D09472E096A2B094B230968200C962A06
:100BD20009034800000962E53DB4FF03753D0612B2
:100BE200085DFC12085DFD12085DFE12085DFF78CB
:100BF2003302031F790AA2D5200314300509B91064
:100C0200020404B9080104A2D520060250010420FE
:100C120002689202B53C005034C0E07F20300319D4
:100C22007F30A20272067205500F120C4FC202C22E
:100C320006C205C2087F30800F300503E9C0E0120A
:100C42000898300503D0E0F9D0E0B53CCC30051768
:100C52007F30B9100C1208987F583004077F7880D3
:100C620003B908031208983002057F2D0208987F05
:100C7200202008F87F2B2006F322920280CF7F00EB
:100C8200B4070050052433F8E6FF22286E756C6C19
:100C92002900D20112085D3001F8C201783C30D53A
:100CA2000108F60209032D5043495812085D240336
:100CB200B405004001E4900CA893120889743A121A
:0A0CC2000889D203753C04020AD52C
:1002A600E9D2E7C933E833F892D5EDD2E7CD33EC9E
:0702B60033FC5002B2D52217
:1002BD00EC30E7100FBF000C0EBE00080DBD0004A2
:1002CD000BEB6014A2D5EB13FCED92E7FD2274FF4E
:1002DD00FCFDFEFF22E480F8A2D574FF13FC7D80A7
:0302ED00E480EFBB
:1002F000F920E72824F950037907E4F42402FB18D5
:10030000DBFDE624FB5014E9600DE4F618E604F684
:0F031000B40A08E4F6D9F57401F60A22C2D52220
:10031F00ED33EC3392D5FA602AB4FF33EDC2E77BAD
:10032F00FF60067A037944E4227A03794D20D504DD
:10033F007A037948224E614E002B494E46002D49D3
:10034F004E4600E47A08F608DAFC7B00740722E8D0
:10035F00C0E0ECC0E0EDC0E0EEC0E0EFC0E0EA7559
:10036F00F010A4CAABF075F04DA42BFBE435F0FCF4
:10037F00EA2410FAEB34C5FBEC34D9FCEDC2E7FFED
:10038F0075F056A4F42411C5F0F434C58FF0A42AE7
:10039F00E5F03BE43CF620E71412054AD0E0FFD02D
:1003AF00E0FED0E0FDD0E0FC1201278014F404122F
:1003BF00054AD0E0FFD0E0FED0E0FDD0E0FC120017
:1003CF001ED0E0F8E6FAEDD2E7CD33EC332482FB12
:1003DF00E4C3CF33CFCE33CECD33CD33DBF37B0777
:1003EF0075F00A846004F6081B0AE5F0F6088FF032
:1003FF00740AA4FFACF08EF0740AA42CFEACF0507B
:10040F00010C8DF0740AA42CFDE435F0F608DBDE48
:03041F007407223D
:100422000202DBE86480F8E933E83360110460F02B
:10043200ED33EC337009E8FCE9FDEAFEEBFF220440
:1004420060DED3EB9FEA9EE99DE8C2E78CF0C2F73B
:1004520095F0400CE8CCF8E9CDF9EACEFAEBCFFB07
:100462001202A685D0F05804700320D5B3E80470B8
:10047200075002B2D50202E592D5EC0460F7E4CC53
:10048200C0E0C398F8603B94186008400DD0E0FBD0
:100492000202BDE4FBFAC9FC8028E830E406E4C9A4
:1004A200FBE4CAFCE830E305E4C9CACBFCE8540724
:1004B2006010F8C3E913F9EA13FAEB13FBEC13FC2F
:1004C200D8F130F52FC3E49CFCEF9BFFEE9AFEEDD2
:1004D20099FDD0E0FBEF4E4D4C701222DB0302027D
:1004E200E2EC2CFCEF33FFEE33FEED33FDED30E7B3
:1004F200EB0202BDEF2BFFEE3AFEED39FDD0E0FB41
:1005020050130BBB00030202E5ED13FDEE13FEEFE9
:0805120013FFEC13FC0202BD13
:10051A003F8000004120000042C80000447A0000E9
:10052A00461C400047C35000497424004B1896806B
:10053A004CBEBC205A0E1BCA6753C21C749DC5AE62
:10054A00FB60065407601C2323120578EB543860BD
:10055A000912056412057312001EECF8EDF9EEFAA1
:10056A00EFCB22EB12057380F1543803241C90055B
:10057A001AFE93FC0EEE93FD0EEE930ECE93FF221F
:10125F00020CCCE493A3F8E493A34003F68001F2CD
:10126F0008DFF48029E493A3F85407240CC8C33390
:10127F00C4540F4420C8834004F456800146F6DF5F
:10128F00E4800B0102040810204080901B86E47E4E
:10129F00019360BCA3FF543F30E509541FFEE49354
:1012AF00A360010ECF54C025E060A840B8E493A31B
:1012BF00FAE493A3F8E493A3C8C582C8CAC583CA46
:1012CF00F0A3C8C582C8CAC583CADFE9DEE780BEFE
:011B9800004C
:10058A00BB010689828A83E0225002E722BBFE026F
:09059A00E32289828A83E49322A2
:1005A300BB010CE58229F582E5833AF583E022500D
:1005B30006E92582F8E622BBFE06E92582F8E22257
:0D05C300E58229F582E5833AF583E4932271
:1005D000BB010689828A83F0225002F722BBFE010A
:0205E000F32204
:1005E200F8BB010DE58229F582E5833AF583E8F04F
:1005F200225006E92582C8F622BBFE05E92582C8FB
:02060200F222E2
:10060400BC000BBE0029EF8DF084FFADF022E4CCDA
:10061400F875F008EF2FFFEE33FEEC33FCEE9DECA3
:10062400984005FCEE9DFE0FD5F0E9E4CEFD22EDE9
:10063400F8F5F0EE8420D21CFEADF075F008EF2F33
:10064400FFED33FD4007985006D5F0F222C398FD24
:050654000FD5F0EA22C1
:1016B000C2D5E830E70FB2D5E4C39BFBE49AFAE465
:1016C00099F9E498F8EC30E717B2D51216E612074C
:1016D000CBE4C39BFBE49AFAE499F9E498F880031D
:1016E0001207CB30D50DE4C39FFFE49EFEE49DFDC1
:0416F000E49CFC2258
:0E065900C3E49FFFE49EFEE49DFDE49CFC22B2
:10066700FAE6FB0808E6F925F0F618E6CA3AF62294
:10067700D083D082F8E4937012740193700DA3A312
:1006870093F8740193F5828883E473740293686026
:06069700EFA3A3A380DF26
:10197900EFB40A07740D121984740A309811A899E2
:10198900B8130CC2983098FDA899C298B811F630CE
:0719990099FDC299F59922A6
:10069D00E709F608DFFA8046E709F208DFFA803E3F
:1006AD0088828C83E709F0A3DFFA8032E309F6082C
:1006BD00DFFA8076E309F208DFFA806E88828C8398
:1006CD00E309F0A3DFFA806289828A83E0A3F6084A
:1006DD00DFFA805689828A83E0A3F208DFFA804A26
:1006ED0080D280FA80C680D4806580F280318010FF
:1006FD0080A680EA809A80A880DA80E280CA803164
:10070D0089828A8363A20188828C8363A201E49328
:10071D00A363A201F0A363A201DFF3DEF1800B89D5
:10072D00828A83E493A3F608DFF9ECFAA9F0EDFBD6
:10073D002289828A8363A20188828C8363A201E06D
:10074D00A363A201F0A363A201DFF4DEF280DB89D3
:10075D00828A83E493A3F208DFF980CE88F0EF60FC
:10076D00010E4E60C588F0ED2402B4040050BBF5B7
:10077D0082EB2402B4040050B1232345822390065A
:02078D00ED730A
:10078F0075F008758200EF2FFFEE33FECD33CDCC21
:10079F0033CCC58233C5829BED9AEC99E5829840A4
:1007AF000CF582EE9BFEED9AFDEC99FC0FD5F0D681
:1007BF00E4CEFBE4CDFAE4CCF9A88222B800C1B9AB
:1007CF000059BA002DEC8BF084CFCECDFCE5F0CBE9
:1007DF00F97818EF2FFFEE33FEED33FDEC33FCEB22
:1007EF0033FB10D703994004EB99FB0FD8E5E4F9DD
:1007FF00FA227818EF2FFFEE33FEED33FDEC33FCCA
:10080F00C933C910D7059BE99A4007EC9BFCE99ABD
:10081F00F90FD8E0E4C9FAE4CCFB2275F010EF2F02
:10082F00FFEE33FEED33FDCC33CCC833C810D70702
:10083F009BEC9AE899400AED9BFDEC9AFCE899F83D
:0E084F000FD5F0DAE4CDFBE4CCFAE4C8F922D0
:00000001FF
